{
    "txid": "bf8ee16a00913c0bacbf86a75f2c00c595e8048724c9f0db9f09ed71fce3c946",
    "version": 1,
    "size": 201,
    "locktime": 0,
    "vin": [
        {
            "txid": "5897de6bd6027a475eadd57019d4e6872c396d0716c4875a5f1a6fcfdf385c1f",
            "vout": 0,
            "scriptSig": {
                "asm": "",
                "hex": ""
            },
            "sequence": 4294967295
        },
        {
            "txid": "bf829c6bcf84579331337659d31f89dfd138f7f7785802d5501c92333145ca7c",
            "vout": 18,
            "scriptSig": {
                "asm": "",
                "hex": ""
            },
            "sequence": 4294967295
        },
        {
            "txid": "22a6f904655d53ae2ff70e701a0bbd90aa3975c0f40bfc6cc996a9049e31cdfc",
            "vout": 1,
            "scriptSig": {
                "asm": "",
                "hex": ""
            },
            "sequence": 4294967295
        }
    ],
    "vout": [
        {
            "value": 0.18,
            "n": 0,
            "scriptPubKey": {
                "asm": "OP_DUP OP_HASH160 ce1c388c454d63b21ebb202010bda79a3b165b4b OP_EQUALVERIFY OP_CHECKSIG",
                "hex": "76a914ce1c388c454d63b21ebb202010bda79a3b165b4b88ac",
                "reqSigs": 1,
                "type": "pubkeyhash",
                "addresses": [
                    "DPvuYbbib66zreC6HNNQgUKzF3jnMmxk71"
                ]
            }
        },
        {
            "value": 4.00,
            "n": 1,
            "scriptPubKey": {
                "asm": "OP_DUP OP_HASH160 14b70d03a3536907a7843f9d9243ddca79d43e38 OP_EQUALVERIFY OP_CHECKSIG",
                "hex": "76a91414b70d03a3536907a7843f9d9243ddca79d43e3888ac",
                "reqSigs": 1,
                "type": "pubkeyhash",
                "addresses": [
                    "D72dLgywmL73JyTwQBfuU29CADz9yCJ99v"
                ]
            }
        }
    ],
    "hex": "01000000031f5c38dfcf6f1a5f5a87c416076d392c87e6d41970d5ad5e477a02d66bde97580000000000ffffffff7cca453133921c50d5025878f7f738d1df891fd359763331935784cf6b9c82bf1200000000fffffffffccd319e04a996c96cfc0bf4c07539aa90bd0b1a700ef72fae535d6504f9a6220100000000ffffffff0280a81201000000001976a914ce1c388c454d63b21ebb202010bda79a3b165b4b88ac0084d717000000001976a91414b70d03a3536907a7843f9d9243ddca79d43e3888ac00000000"
}
